{
  "_format": "hh-sol-artifact-1",
  "contractName": "PetitionPoll",
  "sourceName": "contracts/PetitionPoll.sol",
  "abi": [
    {
      "anonymous": false,
      "inputs": [
        {
          "indexed": true,
          "internalType": "uint256",
          "name": "id",
          "type": "uint256"
        },
        {
          "indexed": true,
          "internalType": "address",
          "name": "creator",
          "type": "address"
        },
        {
          "indexed": false,
          "internalType": "string",
          "name": "title",
          "type": "string"
        },
        {
          "indexed": false,
          "internalType": "string",
          "name": "description",
          "type": "string"
        },
        {
          "indexed": false,
          "internalType": "uint256",
          "name": "deadline",
          "type": "uint256"
        },
        {
          "indexed": false,
          "internalType": "bool",
          "name": "isPublic",
          "type": "bool"
        }
      ],
      "name": "PetitionCreated",
      "type": "event"
    },
    {
      "anonymous": false,
      "inputs": [
        {
          "indexed": true,
          "internalType": "uint256",
          "name": "id",
          "type": "uint256"
        }
      ],
      "name": "PetitionFinalized",
      "type": "event"
    },
    {
      "anonymous": false,
      "inputs": [
        {
          "indexed": true,
          "internalType": "uint256",
          "name": "id",
          "type": "uint256"
        },
        {
          "indexed": true,
          "internalType": "address",
          "name": "voter",
          "type": "address"
        }
      ],
      "name": "PetitionSigned",
      "type": "event"
    },
    {
      "anonymous": false,
      "inputs": [
        {
          "indexed": true,
          "internalType": "uint256",
          "name": "id",
          "type": "uint256"
        },
        {
          "indexed": true,
          "internalType": "address",
          "name": "creator",
          "type": "address"
        },
        {
          "indexed": false,
          "internalType": "string",
          "name": "question",
          "type": "string"
        },
        {
          "indexed": false,
          "internalType": "string[]",
          "name": "options",
          "type": "string[]"
        },
        {
          "indexed": false,
          "internalType": "uint256",
          "name": "deadline",
          "type": "uint256"
        },
        {
          "indexed": false,
          "internalType": "bool",
          "name": "isPublic",
          "type": "bool"
        }
      ],
      "name": "PollCreated",
      "type": "event"
    },
    {
      "anonymous": false,
      "inputs": [
        {
          "indexed": true,
          "internalType": "uint256",
          "name": "pollId",
          "type": "uint256"
        },
        {
          "indexed": false,
          "internalType": "uint256",
          "name": "winnerIndex",
          "type": "uint256"
        }
      ],
      "name": "PollFinalized",
      "type": "event"
    },
    {
      "anonymous": false,
      "inputs": [
        {
          "indexed": true,
          "internalType": "uint256",
          "name": "pollId",
          "type": "uint256"
        },
        {
          "indexed": true,
          "internalType": "address",
          "name": "voter",
          "type": "address"
        },
        {
          "indexed": false,
          "internalType": "uint256",
          "name": "optionIndex",
          "type": "uint256"
        }
      ],
      "name": "VoteCast",
      "type": "event"
    },
    {
      "inputs": [
        {
          "internalType": "string",
          "name": "title",
          "type": "string"
        },
        {
          "internalType": "string",
          "name": "description",
          "type": "string"
        },
        {
          "internalType": "uint256",
          "name": "durationSeconds",
          "type": "uint256"
        },
        {
          "internalType": "bool",
          "name": "isPublic",
          "type": "bool"
        },
        {
          "internalType": "address[]",
          "name": "allowedAddresses",
          "type": "address[]"
        }
      ],
      "name": "createPetition",
      "outputs": [],
      "stateMutability": "nonpayable",
      "type": "function"
    },
    {
      "inputs": [
        {
          "internalType": "string",
          "name": "question",
          "type": "string"
        },
        {
          "internalType": "string[]",
          "name": "options",
          "type": "string[]"
        },
        {
          "internalType": "uint256",
          "name": "durationSeconds",
          "type": "uint256"
        },
        {
          "internalType": "bool",
          "name": "isPublic",
          "type": "bool"
        },
        {
          "internalType": "address[]",
          "name": "allowedAddresses",
          "type": "address[]"
        }
      ],
      "name": "createPoll",
      "outputs": [],
      "stateMutability": "nonpayable",
      "type": "function"
    },
    {
      "inputs": [
        {
          "internalType": "uint256",
          "name": "petitionId",
          "type": "uint256"
        }
      ],
      "name": "finalizePetition",
      "outputs": [],
      "stateMutability": "nonpayable",
      "type": "function"
    },
    {
      "inputs": [
        {
          "internalType": "uint256",
          "name": "pollId",
          "type": "uint256"
        }
      ],
      "name": "finalizePoll",
      "outputs": [],
      "stateMutability": "nonpayable",
      "type": "function"
    },
    {
      "inputs": [],
      "name": "getAllPetitionIds",
      "outputs": [
        {
          "internalType": "uint256[]",
          "name": "",
          "type": "uint256[]"
        }
      ],
      "stateMutability": "view",
      "type": "function"
    },
    {
      "inputs": [],
      "name": "getAllPollIds",
      "outputs": [
        {
          "internalType": "uint256[]",
          "name": "",
          "type": "uint256[]"
        }
      ],
      "stateMutability": "view",
      "type": "function"
    },
    {
      "inputs": [
        {
          "internalType": "uint256",
          "name": "petitionId",
          "type": "uint256"
        }
      ],
      "name": "getPetition",
      "outputs": [
        {
          "internalType": "string",
          "name": "title",
          "type": "string"
        },
        {
          "internalType": "string",
          "name": "description",
          "type": "string"
        },
        {
          "internalType": "uint256",
          "name": "createdAt",
          "type": "uint256"
        },
        {
          "internalType": "uint256",
          "name": "deadline",
          "type": "uint256"
        },
        {
          "internalType": "bool",
          "name": "isPublic",
          "type": "bool"
        },
        {
          "internalType": "uint256",
          "name": "signatureCount",
          "type": "uint256"
        },
        {
          "internalType": "address[]",
          "name": "allowedAddresses",
          "type": "address[]"
        }
      ],
      "stateMutability": "view",
      "type": "function"
    },
    {
      "inputs": [
        {
          "internalType": "uint256",
          "name": "pollId",
          "type": "uint256"
        }
      ],
      "name": "getPoll",
      "outputs": [
        {
          "internalType": "string",
          "name": "question",
          "type": "string"
        },
        {
          "internalType": "string[]",
          "name": "options",
          "type": "string[]"
        },
        {
          "internalType": "uint256",
          "name": "createdAt",
          "type": "uint256"
        },
        {
          "internalType": "uint256",
          "name": "deadline",
          "type": "uint256"
        },
        {
          "internalType": "bool",
          "name": "isPublic",
          "type": "bool"
        },
        {
          "internalType": "uint256[]",
          "name": "voteCounts",
          "type": "uint256[]"
        },
        {
          "internalType": "address[]",
          "name": "allowedAddresses",
          "type": "address[]"
        }
      ],
      "stateMutability": "view",
      "type": "function"
    },
    {
      "inputs": [
        {
          "internalType": "uint256",
          "name": "pollId",
          "type": "uint256"
        },
        {
          "internalType": "address",
          "name": "user",
          "type": "address"
        }
      ],
      "name": "hasVotedInPoll",
      "outputs": [
        {
          "internalType": "bool",
          "name": "",
          "type": "bool"
        }
      ],
      "stateMutability": "view",
      "type": "function"
    },
    {
      "inputs": [
        {
          "internalType": "uint256",
          "name": "pollId",
          "type": "uint256"
        },
        {
          "internalType": "address",
          "name": "user",
          "type": "address"
        }
      ],
      "name": "isEligibleToVote",
      "outputs": [
        {
          "internalType": "bool",
          "name": "",
          "type": "bool"
        }
      ],
      "stateMutability": "view",
      "type": "function"
    },
    {
      "inputs": [],
      "name": "petitionCount",
      "outputs": [
        {
          "internalType": "uint256",
          "name": "",
          "type": "uint256"
        }
      ],
      "stateMutability": "view",
      "type": "function"
    },
    {
      "inputs": [
        {
          "internalType": "uint256",
          "name": "",
          "type": "uint256"
        }
      ],
      "name": "petitionIds",
      "outputs": [
        {
          "internalType": "uint256",
          "name": "",
          "type": "uint256"
        }
      ],
      "stateMutability": "view",
      "type": "function"
    },
    {
      "inputs": [],
      "name": "pollCount",
      "outputs": [
        {
          "internalType": "uint256",
          "name": "",
          "type": "uint256"
        }
      ],
      "stateMutability": "view",
      "type": "function"
    },
    {
      "inputs": [
        {
          "internalType": "uint256",
          "name": "",
          "type": "uint256"
        }
      ],
      "name": "pollIds",
      "outputs": [
        {
          "internalType": "uint256",
          "name": "",
          "type": "uint256"
        }
      ],
      "stateMutability": "view",
      "type": "function"
    },
    {
      "inputs": [
        {
          "internalType": "uint256",
          "name": "petitionId",
          "type": "uint256"
        }
      ],
      "name": "signPetition",
      "outputs": [],
      "stateMutability": "nonpayable",
      "type": "function"
    },
    {
      "inputs": [
        {
          "internalType": "uint256",
          "name": "pollId",
          "type": "uint256"
        },
        {
          "internalType": "uint256",
          "name": "optionIndex",
          "type": "uint256"
        }
      ],
      "name": "vote",
      "outputs": [],
      "stateMutability": "nonpayable",
      "type": "function"
    }
  ],
  "bytecode": "0x608060405234801561001057600080fd5b506132e7806100206000396000f3fe608060405234801561001057600080fd5b50600436106101005760003560e01c80639ae17cea11610097578063c7df6e3e11610066578063c7df6e3e146102b7578063dcad0180146102e7578063e17ef22114610303578063ee0ca5171461033357610100565b80639ae17cea14610231578063a4466c8114610261578063b384abef1461027d578063b9ceb3551461029957610100565b806361ab1f09116100d357806361ab1f09146101a957806373a5c08d146101c75780637e3778e2146101f75780639207891d1461021357610100565b80630c90ce42146101055780631a8cbcaa1461013b578063500ac73e1461017157806356597e4f1461018d575b600080fd5b61011f600480360381019061011a9190611bc0565b610351565b6040516101329796959493929190611d97565b60405180910390f35b61015560048036038101906101509190611bc0565b6105ab565b6040516101689796959493929190611fe5565b60405180910390f35b61018b60048036038101906101869190612157565b6108f7565b005b6101a760048036038101906101a29190611bc0565b610c03565b005b6101b1610dc9565b6040516101be9190612233565b60405180910390f35b6101e160048036038101906101dc9190611bc0565b610dcf565b6040516101ee9190612233565b60405180910390f35b610211600480360381019061020c91906122a4565b610df3565b005b61021b611172565b6040516102289190612233565b60405180910390f35b61024b600480360381019061024691906123ac565b611178565b60405161025891906123ec565b60405180910390f35b61027b60048036038101906102769190611bc0565b61125b565b005b61029760048036038101906102929190612407565b6113a9565b005b6102a1611700565b6040516102ae9190612447565b60405180910390f35b6102d160048036038101906102cc91906123ac565b611758565b6040516102de91906123ec565b60405180910390f35b61030160048036038101906102fc9190611bc0565b611813565b005b61031d60048036038101906103189190611bc0565b611b04565b60405161032a9190612233565b60405180910390f35b61033b611b28565b6040516103489190612447565b60405180910390f35b606080600080600080606060008811801561036e57506001548811155b6103ad576040517f08c379a00000000000000000000000000000000000000000000000000000000081526004016103a4906124b5565b60405180910390fd5b6000600460008a815260200190815260200160002090508060020181600301826004015483600501548460060160009054906101000a900460ff168560080154866007018680546103fd90612504565b80601f016020809104026020016040519081016040528092919081815260200182805461042990612504565b80156104765780601f1061044b57610100808354040283529160200191610476565b820191906000526020600020905b81548152906001019060200180831161045957829003601f168201915b5050505050965085805461048990612504565b80601f01602080910402602001604051908101604052809291908181526020018280546104b590612504565b80156105025780601f106104d757610100808354040283529160200191610502565b820191906000526020600020905b8154815290600101906020018083116104e557829003601f168201915b505050505095508080548060200260200160405190810160405280929190818152602001828054801561058a57602002820191906000526020600020905b8160009054906101000a900473ffffffffffffffffffffffffffffffffffffffff1673ffffffffffffffffffffffffffffffffffffffff1681526020019060010190808311610540575b50505050509050975097509750975097509750975050919395979092949650565b60608060008060006060806000881180156105c857506003548811155b610607576040517f08c379a00000000000000000000000000000000000000000000000000000000081526004016105fe90612581565b60405180910390fd5b6000600560008a8152602001908152602001600020905060008160030180549050905060008167ffffffffffffffff811115610646576106456125a1565b5b6040519080825280602002602001820160405280156106745781602001602082028036833780820191505090505b50905060005b828110156106ca5783600a016000828152602001908152602001600020548282815181106106ab576106aa6125d0565b5b60200260200101818152505080806106c29061262e565b91505061067a565b508260020183600301846004015485600501548660060160009054906101000a900460ff16858860070186805461070090612504565b80601f016020809104026020016040519081016040528092919081815260200182805461072c90612504565b80156107795780601f1061074e57610100808354040283529160200191610779565b820191906000526020600020905b81548152906001019060200180831161075c57829003601f168201915b5050505050965085805480602002602001604051908101604052809291908181526020016000905b8282101561084d5783829060005260206000200180546107c090612504565b80601f01602080910402602001604051908101604052809291908181526020018280546107ec90612504565b80156108395780601f1061080e57610100808354040283529160200191610839565b820191906000526020600020905b81548152906001019060200180831161081c57829003601f168201915b5050505050815260200190600101906107a1565b505050509550808054806020026020016040519081016040528092919081815260200182805480156108d457602002820191906000526020600020905b8160009054906101000a900473ffffffffffffffffffffffffffffffffffffffff1673ffffffffffffffffffffffffffffffffffffffff168152602001906001019080831161088a575b505050505090509950995099509950995099509950505050919395979092949650565b6000888890501161093d576040517f08c379a0000000000000000000000000000000000000000000000000000000008152600401610934906126c2565b60405180910390fd5b60008411610980576040517f08c379a00000000000000000000000000000000000000000000000000000000081526004016109779061272e565b60405180910390fd5b600160008154809291906109939061262e565b9190505550600060015490506000600460008381526020019081526020016000209050818160000181905550338160010160006101000a81548173ffffffffffffffffffffffffffffffffffffffff021916908373ffffffffffffffffffffffffffffffffffffffff1602179055508989826002019182610a15929190612905565b508787826003019182610a29929190612905565b504281600401819055508542610a3f91906129d5565b8160050181905550848160060160006101000a81548160ff02191690831515021790555060005b84849050811015610b70576000858583818110610a8657610a856125d0565b5b9050602002016020810190610a9b9190612a09565b905082600701819080600181540180825580915050600190039060005260206000200160009091909190916101000a81548173ffffffffffffffffffffffffffffffffffffffff021916908373ffffffffffffffffffffffffffffffffffffffff160217905550600183600a0160008373ffffffffffffffffffffffffffffffffffffffff1673ffffffffffffffffffffffffffffffffffffffff16815260200190815260200160002060006101000a81548160ff021916908315150217905550508080610b689061262e565b915050610a66565b5060008290806001815401808255809150506001900390600052602060002001600090919091909150553373ffffffffffffffffffffffffffffffffffffffff16827f3dad94c375be5a5f9cf70f0b4b43a19f66b19f8883212b0f32c0cbb169b1f8468c8c8c8c87600501548c604051610bef96959493929190612a72565b60405180910390a350505050505050505050565b600081118015610c1557506003548111155b610c54576040517f08c379a0000000000000000000000000000000000000000000000000000000008152600401610c4b90612581565b60405180910390fd5b600060056000838152602001908152602001600020905080600b0160009054906101000a900460ff1615610cbd576040517f08c379a0000000000000000000000000000000000000000000000000000000008152600401610cb490612b15565b60405180910390fd5b80600501544211610d03576040517f08c379a0000000000000000000000000000000000000000000000000000000008152600401610cfa90612b81565b60405180910390fd5b60008060005b8360030180549050811015610d64578184600a016000838152602001908152602001600020541115610d515783600a0160008281526020019081526020016000205491508092505b8080610d5c9061262e565b915050610d09565b50600183600b0160006101000a81548160ff0219169083151502179055508183600c0181905550837fe992bd2ee9f3c9a89bf16dcbadd0eab1f2b2bdedd79ee0bf255b586a5e35f9ac83604051610dbb9190612233565b60405180910390a250505050565b60015481565b60028181548110610ddf57600080fd5b906000526020600020016000915090505481565b6002868690501015610e3a576040517f08c379a0000000000000000000000000000000000000000000000000000000008152600401610e3190612bed565b60405180910390fd5b60008411610e7d576040517f08c379a0000000000000000000000000000000000000000000000000000000008152600401610e749061272e565b60405180910390fd5b60036000815480929190610e909061262e565b9190505550600060035490506000600560008381526020019081526020016000209050818160000181905550338160010160006101000a81548173ffffffffffffffffffffffffffffffffffffffff021916908373ffffffffffffffffffffffffffffffffffffffff1602179055508989826002019182610f12929190612905565b504281600401819055508542610f2891906129d5565b8160050181905550848160060160006101000a81548160ff02191690831515021790555060005b88889050811015610fd05781600301898983818110610f7157610f706125d0565b5b9050602002810190610f839190612c1c565b90918060018154018082558091505060019003906000526020600020016000909192909192909192909192509182610fbc929190612905565b508080610fc89061262e565b915050610f4f565b5060005b848490508110156110de576000858583818110610ff457610ff36125d0565b5b90506020020160208101906110099190612a09565b905082600701819080600181540180825580915050600190039060005260206000200160009091909190916101000a81548173ffffffffffffffffffffffffffffffffffffffff021916908373ffffffffffffffffffffffffffffffffffffffff16021790555060018360080160008373ffffffffffffffffffffffffffffffffffffffff1673ffffffffffffffffffffffffffffffffffffffff16815260200190815260200160002060006101000a81548160ff0219169083151502179055505080806110d69061262e565b915050610fd4565b5060028290806001815401808255809150506001900390600052602060002001600090919091909150553373ffffffffffffffffffffffffffffffffffffffff16827f9fc048218edba959f9e3d97c243ff23698b0a9947b398bbf3c8ca345737fbc4e8c8c8560030186600501548b60405161115e959493929190612db8565b60405180910390a350505050505050505050565b60035481565b6000808311801561118b57506003548311155b6111ca576040517f08c379a00000000000000000000000000000000000000000000000000000000081526004016111c190612581565b60405180910390fd5b60006005600085815260200190815260200160002090508060060160009054906101000a900460ff1615611202576001915050611255565b8060080160008473ffffffffffffffffffffffffffffffffffffffff1673ffffffffffffffffffffffffffffffffffffffff16815260200190815260200160002060009054906101000a900460ff169150505b92915050565b60008111801561126d57506001548111155b6112ac576040517f08c379a00000000000000000000000000000000000000000000000000000000081526004016112a3906124b5565b60405180910390fd5b60006004600083815260200190815260200160002090508060090160009054906101000a900460ff1615611315576040517f08c379a000000000000000000000000000000000000000000000000000000000815260040161130c90612e59565b60405180910390fd5b8060050154421161135b576040517f08c379a000000000000000000000000000000000000000000000000000000000815260040161135290612ec5565b60405180910390fd5b60018160090160006101000a81548160ff021916908315150217905550817f94f3b4fb6710a2ef8fd882946e4a96651c64c91b23a2b35521e098432347e1c860405160405180910390a25050565b6000821180156113bb57506003548211155b6113fa576040517f08c379a00000000000000000000000000000000000000000000000000000000081526004016113f190612581565b60405180910390fd5b600060056000848152602001908152602001600020905080600b0160009054906101000a900460ff1615611463576040517f08c379a000000000000000000000000000000000000000000000000000000000815260040161145a90612f31565b60405180910390fd5b80600501544211156114aa576040517f08c379a00000000000000000000000000000000000000000000000000000000081526004016114a190612f9d565b60405180910390fd5b806003018054905082106114f3576040517f08c379a00000000000000000000000000000000000000000000000000000000081526004016114ea90613009565b60405180910390fd5b8060090160003373ffffffffffffffffffffffffffffffffffffffff1673ffffffffffffffffffffffffffffffffffffffff16815260200190815260200160002060009054906101000a900460ff1615611582576040517f08c379a000000000000000000000000000000000000000000000000000000000815260040161157990613075565b60405180910390fd5b8060060160009054906101000a900460ff16611627578060080160003373ffffffffffffffffffffffffffffffffffffffff1673ffffffffffffffffffffffffffffffffffffffff16815260200190815260200160002060009054906101000a900460ff16611626576040517f08c379a000000000000000000000000000000000000000000000000000000000815260040161161d906130e1565b60405180910390fd5b5b60018160090160003373ffffffffffffffffffffffffffffffffffffffff1673ffffffffffffffffffffffffffffffffffffffff16815260200190815260200160002060006101000a81548160ff02191690831515021790555080600a01600083815260200190815260200160002060008154809291906116a79061262e565b91905055503373ffffffffffffffffffffffffffffffffffffffff16837f2acce567deca3aabf56327adbb4524bd5318936eaefa69e3a5208ffda0cfec09846040516116f39190612233565b60405180910390a3505050565b6060600080548060200260200160405190810160405280929190818152602001828054801561174e57602002820191906000526020600020905b81548152602001906001019080831161173a575b5050505050905090565b6000808311801561176b57506003548311155b6117aa576040517f08c379a00000000000000000000000000000000000000000000000000000000081526004016117a190612581565b60405180910390fd5b6005600084815260200190815260200160002060090160008373ffffffffffffffffffffffffffffffffffffffff1673ffffffffffffffffffffffffffffffffffffffff16815260200190815260200160002060009054906101000a900460ff16905092915050565b60008111801561182557506001548111155b611864576040517f08c379a000000000000000000000000000000000000000000000000000000000815260040161185b906124b5565b60405180910390fd5b60006004600083815260200190815260200160002090508060090160009054906101000a900460ff16156118cd576040517f08c379a00000000000000000000000000000000000000000000000000000000081526004016118c49061314d565b60405180910390fd5b8060050154421115611914576040517f08c379a000000000000000000000000000000000000000000000000000000000815260040161190b906131b9565b60405180910390fd5b80600b0160003373ffffffffffffffffffffffffffffffffffffffff1673ffffffffffffffffffffffffffffffffffffffff16815260200190815260200160002060009054906101000a900460ff16156119a3576040517f08c379a000000000000000000000000000000000000000000000000000000000815260040161199a90613225565b60405180910390fd5b8060060160009054906101000a900460ff16611a485780600a0160003373ffffffffffffffffffffffffffffffffffffffff1673ffffffffffffffffffffffffffffffffffffffff16815260200190815260200160002060009054906101000a900460ff16611a47576040517f08c379a0000000000000000000000000000000000000000000000000000000008152600401611a3e90613291565b60405180910390fd5b5b600181600b0160003373ffffffffffffffffffffffffffffffffffffffff1673ffffffffffffffffffffffffffffffffffffffff16815260200190815260200160002060006101000a81548160ff021916908315150217905550806008016000815480929190611ab79061262e565b91905055503373ffffffffffffffffffffffffffffffffffffffff16827fa24773234734fa56d66ce98fb6d0c8e4b38c3ce67e8a0cfa10756d0909ba4ed260405160405180910390a35050565b60008181548110611b1457600080fd5b906000526020600020016000915090505481565b60606002805480602002602001604051908101604052809291908181526020018280548015611b7657602002820191906000526020600020905b815481526020019060010190808311611b62575b5050505050905090565b600080fd5b600080fd5b6000819050919050565b611b9d81611b8a565b8114611ba857600080fd5b50565b600081359050611bba81611b94565b92915050565b600060208284031215611bd657611bd5611b80565b5b6000611be484828501611bab565b91505092915050565b600081519050919050565b600082825260208201905092915050565b60005b83811015611c27578082015181840152602081019050611c0c565b60008484015250505050565b6000601f19601f8301169050919050565b6000611c4f82611bed565b611c598185611bf8565b9350611c69818560208601611c09565b611c7281611c33565b840191505092915050565b611c8681611b8a565b82525050565b60008115159050919050565b611ca181611c8c565b82525050565b600081519050919050565b600082825260208201905092915050565b6000819050602082019050919050565b600073ffffffffffffffffffffffffffffffffffffffff82169050919050565b6000611cfe82611cd3565b9050919050565b611d0e81611cf3565b82525050565b6000611d208383611d05565b60208301905092915050565b6000602082019050919050565b6000611d4482611ca7565b611d4e8185611cb2565b9350611d5983611cc3565b8060005b83811015611d8a578151611d718882611d14565b9750611d7c83611d2c565b925050600181019050611d5d565b5085935050505092915050565b600060e0820190508181036000830152611db1818a611c44565b90508181036020830152611dc58189611c44565b9050611dd46040830188611c7d565b611de16060830187611c7d565b611dee6080830186611c98565b611dfb60a0830185611c7d565b81810360c0830152611e0d8184611d39565b905098975050505050505050565b600081519050919050565b600082825260208201905092915050565b6000819050602082019050919050565b600082825260208201905092915050565b6000611e6382611bed565b611e6d8185611e47565b9350611e7d818560208601611c09565b611e8681611c33565b840191505092915050565b6000611e9d8383611e58565b905092915050565b6000602082019050919050565b6000611ebd82611e1b565b611ec78185611e26565b935083602082028501611ed985611e37565b8060005b85811015611f155784840389528151611ef68582611e91565b9450611f0183611ea5565b925060208a01995050600181019050611edd565b50829750879550505050505092915050565b600081519050919050565b600082825260208201905092915050565b6000819050602082019050919050565b611f5c81611b8a565b82525050565b6000611f6e8383611f53565b60208301905092915050565b6000602082019050919050565b6000611f9282611f27565b611f9c8185611f32565b9350611fa783611f43565b8060005b83811015611fd8578151611fbf8882611f62565b9750611fca83611f7a565b925050600181019050611fab565b5085935050505092915050565b600060e0820190508181036000830152611fff818a611c44565b905081810360208301526120138189611eb2565b90506120226040830188611c7d565b61202f6060830187611c7d565b61203c6080830186611c98565b81810360a083015261204e8185611f87565b905081810360c08301526120628184611d39565b905098975050505050505050565b600080fd5b600080fd5b600080fd5b60008083601f84011261209557612094612070565b5b8235905067ffffffffffffffff8111156120b2576120b1612075565b5b6020830191508360018202830111156120ce576120cd61207a565b5b9250929050565b6120de81611c8c565b81146120e957600080fd5b50565b6000813590506120fb816120d5565b92915050565b60008083601f84011261211757612116612070565b5b8235905067ffffffffffffffff81111561213457612133612075565b5b6020830191508360208202830111156121505761214f61207a565b5b9250929050565b60008060008060008060008060a0898b03121561217757612176611b80565b5b600089013567ffffffffffffffff81111561219557612194611b85565b5b6121a18b828c0161207f565b9850985050602089013567ffffffffffffffff8111156121c4576121c3611b85565b5b6121d08b828c0161207f565b965096505060406121e38b828c01611bab565b94505060606121f48b828c016120ec565b935050608089013567ffffffffffffffff81111561221557612214611b85565b5b6122218b828c01612101565b92509250509295985092959890939650565b60006020820190506122486000830184611c7d565b92915050565b60008083601f84011261226457612263612070565b5b8235905067ffffffffffffffff81111561228157612280612075565b5b60208301915083602082028301111561229d5761229c61207a565b5b9250929050565b60008060008060008060008060a0898b0312156122c4576122c3611b80565b5b600089013567ffffffffffffffff8111156122e2576122e1611b85565b5b6122ee8b828c0161207f565b9850985050602089013567ffffffffffffffff81111561231157612310611b85565b5b61231d8b828c0161224e565b965096505060406123308b828c01611bab565b94505060606123418b828c016120ec565b935050608089013567ffffffffffffffff81111561236257612361611b85565b5b61236e8b828c01612101565b92509250509295985092959890939650565b61238981611cf3565b811461239457600080fd5b50565b6000813590506123a681612380565b92915050565b600080604083850312156123c3576123c2611b80565b5b60006123d185828601611bab565b92505060206123e285828601612397565b9150509250929050565b60006020820190506124016000830184611c98565b92915050565b6000806040838503121561241e5761241d611b80565b5b600061242c85828601611bab565b925050602061243d85828601611bab565b9150509250929050565b600060208201905081810360008301526124618184611f87565b905092915050565b7f5065746974696f6e20646f6573206e6f74206578697374000000000000000000600082015250565b600061249f601783611bf8565b91506124aa82612469565b602082019050919050565b600060208201905081810360008301526124ce81612492565b9050919050565b7f4e487b7100000000000000000000000000000000000000000000000000000000600052602260045260246000fd5b6000600282049050600182168061251c57607f821691505b60208210810361252f5761252e6124d5565b5b50919050565b7f506f6c6c20646f6573206e6f7420657869737400000000000000000000000000600082015250565b600061256b601383611bf8565b915061257682612535565b602082019050919050565b6000602082019050818103600083015261259a8161255e565b9050919050565b7f4e487b7100000000000000000000000000000000000000000000000000000000600052604160045260246000fd5b7f4e487b7100000000000000000000000000000000000000000000000000000000600052603260045260246000fd5b7f4e487b7100000000000000000000000000000000000000000000000000000000600052601160045260246000fd5b600061263982611b8a565b91507fffffffffffffffffffffffffffffffffffffffffffffffffffffffffffffffff820361266b5761266a6125ff565b5b600182019050919050565b7f5469746c65207265717569726564000000000000000000000000000000000000600082015250565b60006126ac600e83611bf8565b91506126b782612676565b602082019050919050565b600060208201905081810360008301526126db8161269f565b9050919050565b7f4475726174696f6e206d757374206265203e2030000000000000000000000000600082015250565b6000612718601483611bf8565b9150612723826126e2565b602082019050919050565b600060208201905081810360008301526127478161270b565b9050919050565b600082905092915050565b60008190508160005260206000209050919050565b60006020601f8301049050919050565b600082821b905092915050565b6000600883026127bb7fffffffffffffffffffffffffffffffffffffffffffffffffffffffffffffffff8261277e565b6127c5868361277e565b95508019841693508086168417925050509392505050565b6000819050919050565b60006128026127fd6127f884611b8a565b6127dd565b611b8a565b9050919050565b6000819050919050565b61281c836127e7565b61283061282882612809565b84845461278b565b825550505050565b600090565b612845612838565b612850818484612813565b505050565b5b818110156128745761286960008261283d565b600181019050612856565b5050565b601f8211156128b95761288a81612759565b6128938461276e565b810160208510156128a2578190505b6128b66128ae8561276e565b830182612855565b50505b505050565b600082821c905092915050565b60006128dc600019846008026128be565b1980831691505092915050565b60006128f583836128cb565b9150826002028217905092915050565b61290f838361274e565b67ffffffffffffffff811115612928576129276125a1565b5b6129328254612504565b61293d828285612878565b6000601f83116001811461296c576000841561295a578287013590505b61296485826128e9565b8655506129cc565b601f19841661297a86612759565b60005b828110156129a25784890135825560018201915060208501945060208101905061297d565b868310156129bf57848901356129bb601f8916826128cb565b8355505b6001600288020188555050505b50505050505050565b60006129e082611b8a565b91506129eb83611b8a565b9250828201905080821115612a0357612a026125ff565b5b92915050565b600060208284031215612a1f57612a1e611b80565b5b6000612a2d84828501612397565b91505092915050565b82818337600083830152505050565b6000612a518385611bf8565b9350612a5e838584612a36565b612a6783611c33565b840190509392505050565b60006080820190508181036000830152612a8d81888a612a45565b90508181036020830152612aa2818688612a45565b9050612ab16040830185611c7d565b612abe6060830184611c98565b979650505050505050565b7f416c72656164792066696e616c697a6564000000000000000000000000000000600082015250565b6000612aff601183611bf8565b9150612b0a82612ac9565b602082019050919050565b60006020820190508181036000830152612b2e81612af2565b9050919050565b7f566f74696e67206e6f742079657420636c6f7365640000000000000000000000600082015250565b6000612b6b601583611bf8565b9150612b7682612b35565b602082019050919050565b60006020820190508181036000830152612b9a81612b5e565b9050919050565b7f4174206c656173742032206f7074696f6e730000000000000000000000000000600082015250565b6000612bd7601283611bf8565b9150612be282612ba1565b602082019050919050565b60006020820190508181036000830152612c0681612bca565b9050919050565b600080fd5b600080fd5b600080fd5b60008083356001602003843603038112612c3957612c38612c0d565b5b80840192508235915067ffffffffffffffff821115612c5b57612c5a612c12565b5b602083019250600182023603831315612c7757612c76612c17565b5b509250929050565b600081549050919050565b60008190508160005260206000209050919050565b60008154612cac81612504565b612cb68186611e47565b94506001821660008114612cd15760018114612ce757612d1a565b60ff198316865281151560200286019350612d1a565b612cf085612759565b60005b83811015612d1257815481890152600182019150602081019050612cf3565b808801955050505b50505092915050565b6000612d2f8383612c9f565b905092915050565b6000600182019050919050565b6000612d4f82612c7f565b612d598185611e26565b935083602082028501612d6b85612c8a565b8060005b85811015612da657848403895281612d878582612d23565b9450612d9283612d37565b925060208a01995050600181019050612d6f565b50829750879550505050505092915050565b60006080820190508181036000830152612dd3818789612a45565b90508181036020830152612de78186612d44565b9050612df66040830185611c7d565b612e036060830184611c98565b9695505050505050565b7f416c726561647920636c6f736564000000000000000000000000000000000000600082015250565b6000612e43600e83611bf8565b9150612e4e82612e0d565b602082019050919050565b60006020820190508181036000830152612e7281612e36565b9050919050565b7f446561646c696e65206e6f742079657420706173736564000000000000000000600082015250565b6000612eaf601783611bf8565b9150612eba82612e79565b602082019050919050565b60006020820190508181036000830152612ede81612ea2565b9050919050565b7f506f6c6c2066696e616c697a6564000000000000000000000000000000000000600082015250565b6000612f1b600e83611bf8565b9150612f2682612ee5565b602082019050919050565b60006020820190508181036000830152612f4a81612f0e565b9050919050565b7f566f74696e6720636c6f73656400000000000000000000000000000000000000600082015250565b6000612f87600d83611bf8565b9150612f9282612f51565b602082019050919050565b60006020820190508181036000830152612fb681612f7a565b9050919050565b7f496e76616c6964206f7074696f6e000000000000000000000000000000000000600082015250565b6000612ff3600e83611bf8565b9150612ffe82612fbd565b602082019050919050565b6000602082019050818103600083015261302281612fe6565b9050919050565b7f416c726561647920766f74656400000000000000000000000000000000000000600082015250565b600061305f600d83611bf8565b915061306a82613029565b602082019050919050565b6000602082019050818103600083015261308e81613052565b9050919050565b7f4e6f7420616c6c6f77656420746f20766f746500000000000000000000000000600082015250565b60006130cb601383611bf8565b91506130d682613095565b602082019050919050565b600060208201905081810360008301526130fa816130be565b9050919050565b7f5065746974696f6e20636c6f7365640000000000000000000000000000000000600082015250565b6000613137600f83611bf8565b915061314282613101565b602082019050919050565b600060208201905081810360008301526131668161312a565b9050919050565b7f446561646c696e65207061737365640000000000000000000000000000000000600082015250565b60006131a3600f83611bf8565b91506131ae8261316d565b602082019050919050565b600060208201905081810360008301526131d281613196565b9050919050565b7f416c7265616479207369676e6564000000000000000000000000000000000000600082015250565b600061320f600e83611bf8565b915061321a826131d9565b602082019050919050565b6000602082019050818103600083015261323e81613202565b9050919050565b7f4e6f7420616c6c6f77656420746f207369676e00000000000000000000000000600082015250565b600061327b601383611bf8565b915061328682613245565b602082019050919050565b600060208201905081810360008301526132aa8161326e565b905091905056fea2646970667358221220e2a02fb73f610d79578d851375e2d091917f998ff4f1f7b7b0c35b9e13962b5c64736f6c63430008110033",
  "linkReferences": {},
  "deployedLinkReferences": {}
}